{
  "contractName": "Employees",
  "abi": [
    {
      "inputs": [
        {
          "internalType": "string",
          "name": "_name",
          "type": "string"
        },
        {
          "internalType": "uint256",
          "name": "_age",
          "type": "uint256"
        },
        {
          "internalType": "uint256",
          "name": "_salary",
          "type": "uint256"
        }
      ],
      "name": "setDetails",
      "outputs": [],
      "stateMutability": "nonpayable",
      "type": "function"
    },
    {
      "inputs": [
        {
          "internalType": "uint256",
          "name": "_id",
          "type": "uint256"
        }
      ],
      "name": "getDetails",
      "outputs": [
        {
          "internalType": "string",
          "name": "",
          "type": "string"
        },
        {
          "internalType": "uint256",
          "name": "",
          "type": "uint256"
        },
        {
          "internalType": "uint256",
          "name": "",
          "type": "uint256"
        }
      ],
      "stateMutability": "view",
      "type": "function",
      "constant": true
    }
  ],
  "bytecode": "0x608060405234801561001057600080fd5b506106bc806100206000396000f3fe608060405234801561001057600080fd5b50600436106100365760003560e01c8063b93a89f71461003b578063c6b815e61461006d575b600080fd5b610055600480360381019061005091906102f6565b610089565b604051610064939291906103cb565b60405180910390f35b6100876004803603810190610082919061053e565b610177565b005b6060600080600080600086815260200190815260200160002060010180546100b0906105dc565b80601f01602080910402602001604051908101604052809291908181526020018280546100dc906105dc565b80156101295780601f106100fe57610100808354040283529160200191610129565b820191906000526020600020905b81548152906001019060200180831161010c57829003601f168201915b50505050509050600080600087815260200190815260200160002060020154905060008060008881526020019081526020016000206003015490508282829550955095505050509193909250565b604051806080016040528060015481526020018481526020018381526020018281525060008060015481526020019081526020016000206000820151816000015560208201518160010190805190602001906101d4929190610209565b506040820151816002015560608201518160030155905050600160008154809291906101ff9061063d565b9190505550505050565b828054610215906105dc565b90600052602060002090601f016020900481019282610237576000855561027e565b82601f1061025057805160ff191683800117855561027e565b8280016001018555821561027e579182015b8281111561027d578251825591602001919060010190610262565b5b50905061028b919061028f565b5090565b5b808211156102a8576000816000905550600101610290565b5090565b6000604051905090565b600080fd5b600080fd5b6000819050919050565b6102d3816102c0565b81146102de57600080fd5b50565b6000813590506102f0816102ca565b92915050565b60006020828403121561030c5761030b6102b6565b5b600061031a848285016102e1565b91505092915050565b600081519050919050565b600082825260208201905092915050565b60005b8381101561035d578082015181840152602081019050610342565b8381111561036c576000848401525b50505050565b6000601f19601f8301169050919050565b600061038e82610323565b610398818561032e565b93506103a881856020860161033f565b6103b181610372565b840191505092915050565b6103c5816102c0565b82525050565b600060608201905081810360008301526103e58186610383565b90506103f460208301856103bc565b61040160408301846103bc565b949350505050565b600080fd5b600080fd5b7f4e487b7100000000000000000000000000000000000000000000000000000000600052604160045260246000fd5b61044b82610372565b810181811067ffffffffffffffff8211171561046a57610469610413565b5b80604052505050565b600061047d6102ac565b90506104898282610442565b919050565b600067ffffffffffffffff8211156104a9576104a8610413565b5b6104b282610372565b9050602081019050919050565b82818337600083830152505050565b60006104e16104dc8461048e565b610473565b9050828152602081018484840111156104fd576104fc61040e565b5b6105088482856104bf565b509392505050565b600082601f83011261052557610524610409565b5b81356105358482602086016104ce565b91505092915050565b600080600060608486031215610557576105566102b6565b5b600084013567ffffffffffffffff811115610575576105746102bb565b5b61058186828701610510565b9350506020610592868287016102e1565b92505060406105a3868287016102e1565b9150509250925092565b7f4e487b7100000000000000000000000000000000000000000000000000000000600052602260045260246000fd5b600060028204905060018216806105f457607f821691505b60208210811415610608576106076105ad565b5b50919050565b7f4e487b7100000000000000000000000000000000000000000000000000000000600052601160045260246000fd5b6000610648826102c0565b91507fffffffffffffffffffffffffffffffffffffffffffffffffffffffffffffffff82141561067b5761067a61060e565b5b60018201905091905056fea2646970667358221220d8e979c3fdf6a75a7a4deee05cb37d1d38258aa43c8dcbdc8e0475d7a7f4a02164736f6c634300080b0033",
  "immutableReferences": {},
  "source": "//SPDX-License-Identifier: GPL-3.0\r\npragma solidity >=0.7.0 <0.9.0;\r\n\r\ncontract Employees {\r\n\r\n    mapping (uint => Employee) employees;\r\n    uint employeesCount;\r\n\r\n    struct Employee {\r\n        uint id;\r\n        string name;\r\n        uint age;\r\n        uint salary;\r\n    }\r\n\r\n    function setDetails(string memory _name, uint _age, uint _salary) external {\r\n        employees[employeesCount] = Employee(employeesCount, _name, _age, _salary);\r\n        employeesCount++;\r\n    }\r\n\r\n    function getDetails(uint _id) view public returns (string memory, uint, uint){\r\n        string memory name = employees[_id].name;\r\n        uint age = employees[_id].age;\r\n        uint salary = employees[_id].salary;\r\n        return (name, age, salary);\r\n    }\r\n}\r\n",
  "sourcePath": "C:\\Softwares\\solidity\\truffile-test-project\\contracts\\Employees.sol",
  "compiler": {
    "name": "solc",
    "version": "0.8.11+commit.d7f03943.Emscripten.clang"
  },
  "schemaVersion": "3.4.4",
  "updatedAt": "2022-01-14T10:02:24.082Z",
  "networkType": "ethereum",
  "devdoc": {
    "kind": "dev",
    "methods": {},
    "version": 1
  },
  "userdoc": {
    "kind": "user",
    "methods": {},
    "version": 1
  }
}